:020000040800F2
:1000000000000820A1280008D5270008D7270008ED
:10001000D9270008DB270008DD27000800000000C2
:10002000000000000000000000000000DF270008C2
:10003000E127000800000000E3270008E52700088A
:10004000F1280008F1280008F1280008F12800082C
:10005000F1280008F1280008F1280008F12800081C
:10006000F1280008F1280008F1280008F12800080C
:10007000F1280008F1280008F1280008F1280008FC
:10008000F1280008F1280008F1280008F1280008EC
:10009000F1280008F1280008F1280008F1280008DC
:1000A000F1280008F1280008F1280008F1280008CC
:1000B000F1280008F1280008ED270008F1280008C1
:1000C000F1280008F1280008F1280008F1280008AC
:1000D000F1280008F1280008F1280008F12800089C
:1000E000F1280008F1280008F1280008F12800088C
:1000F000F1280008F1280008F1280008F12800087C
:10010000F1280008F1280008F1280008F12800086B
:10011000F1280008F1280008F1280008F12800085B
:10012000F1280008F1280008F1280008F12800084B
:10013000F1280008F1280008F1280008F12800083B
:10014000F1280008F1280008F1280008F12800082B
:10015000F1280008F1280008F1280008F12800081B
:10016000F1280008F1280008F1280008F12800080B
:10017000F1280008F1280008F1280008000000001C
:10018000F1280008F1280008F1280008F1280008EB
:10019000F1280008F1280008F1280008F1280008DB
:1001A000F1280008F1280008F1280008F1280008CB
:1001B000F1280008F1280008F1280008F1280008BB
:1001C000F1280008F128000800000000F1280008CC
:1001D000F1280008F1280008F1280008F12800089B
:1001E000F1280008F1280008F1280008F12800088B
:0801F000F1280008F1280008C5
:1002000010B5054C237833B9044B13B10448AFF350
:1002100000800123237010BD70000020000000004A
:100220003037000808B5034B1BB103490348AFF34F
:10023000008008BD00000000740000203037000876
:1002400053B94AB9002908BF00281CBF4FF0FF313D
:100250004FF0FF3000F072B9ADF1080C6DE904CE3B
:1002600000F006F8DDF804E0DDE9022304B0704791
:100270002DE9F047089E04468846002B4BD18A4260
:10028000154667D9B2FA82F24AB1C2F1200701FAE3
:1002900002F320FA07F7954047EA030894404FEA33
:1002A000154E230CB8FBFEF71FFA85FC0EFB1788D2
:1002B00043EA084307FB0CF1994209D9EB1807F10F
:1002C000FF3080F01B81994240F21881023F2B449D
:1002D0005B1AA4B2B3FBFEF00EFB103344EA0344F6
:1002E00000FB0CFCA44509D92C1900F1FF3380F068
:1002F0000781A44540F2048102382C4440EA0740BB
:10030000A4EB0C0400271EB1D4400023C6E900432F
:100310003946BDE8F0878B4209D9002E00F0EB800A
:100320000027C6E9000138463946BDE8F087B3FA30
:1003300083F7002F47D18B4202D3824200F2FA802A
:10034000841A61EB030301209846002EE0D0C6E931
:100350000048DDE702B9FFDEB2FA82F2002A40F07F
:100360008F80491B4FEA154E1FFA85F80127B1FB14
:10037000FEFC230C0EFB1C1143EA014308FB0CF1AD
:10038000994207D9EB180CF1FF3002D2994200F2E2
:10039000CD808446591AA3B2B1FBFEF00EFB1014B7
:1003A00043EA044408FB00F8A04507D92C1900F1E2
:1003B000FF3302D2A04500F2B6801846A4EB080431
:1003C00040EA0C409FE7C7F1200CBB4022FA0CFE2C
:1003D0004EEA030E01FA07F420FA0CF521FA0CF3A9
:1003E0004FEA1E482543B3FBF8F92C0C08FB1933E0
:1003F0001FFA8EFA44EA034309FB0AF49C4202FA0C
:1004000007F200FA07F10BD91EEB030309F1FF30E5
:1004100080F087809C4240F28480A9F102097344F5
:100420001B1BADB2B3FBF8F008FB103345EA0344E5
:1004300000FB0AFAA24508D91EEB040400F1FF33C1
:100440006BD2A24569D90238744440EA0940A0FB46
:100450000289A4EB0A044C45C2464B4654D351D002
:10046000002E69D0B1EB0A0564EB030404FA0CFC1E
:10047000FD40FC404CEA0505C6E90054002747E76B
:10048000C2F1200320FA03F7954001FA02F021FAA5
:1004900003F34FEA154E3843010CB3FBFEF71FFA86
:1004A00085F80EFB173341EA034107FB08F38B4243
:1004B00004FA02F407D9691807F1FF3C2FD28B42E6
:1004C0002DD9023F2944CB1A81B2B3FBFEF00EFBBB
:1004D000103341EA034100FB08F38B4207D9691846
:1004E00000F1FF3C17D28B4215D902382944C91AB2
:1004F00040EA07473BE73746304609E70746E7E665
:100500001846FBE64145ABD2B8EB020A69EB0E0296
:1005100001381346A4E76046E9E7184695E76746C1
:10052000D1E781467CE702382C4447E7ACF1020C66
:100530002B442FE7384608E73746E9E6704700BF07
:1005400001F0FF01102A2BDB10F0070F08D010F884
:10055000013B013A8B422DD010F0070F42B3F6D188
:10056000F0B441EA012141EA014122F007047FF0A1
:1005700000070023F0E80256083C85EA010586EAF8
:10058000010685FA47F5A3FA87F586FA47F6A5FA34
:1005900087F68EB9EED1F0BC01F0FF0102F0070240
:1005A00032B110F8013B013A83EA010313B1F8D1EB
:1005B0000020704701387047002D06BF35460338CC
:1005C000073815F0010F07D1013015F4807F02BF05
:1005D000013015F4C03F0130F0BC0138704700BF56
:1005E00010B504460E4B18784FF47A73B3FBF0F352
:1005F0000C4A1068B0FBF3F000F086F868B90F2CD5
:1006000001D901200AE0002221464FF0FF3000F01E
:100610003BF8034B5C60002000E0012010BD00BFF0
:10062000000000200800002008B5032000F01AF8A0
:100630000020FFF7D5FF02F05FF8002008BD0000A2
:10064000034A1168034B1B780B441360704700BFCB
:10065000AC00002000000020014B1868704700BF6C
:10066000AC0000200649CB6823F4E0631B041B0C9C
:10067000000200F4E0600343024A1A43CA60704774
:1006800000ED00E00000FA0530B4154BDB68C3F361
:100690000223C3F10704042C28BF04241D1D062DCA
:1006A00014D9033B4FF0FF3505FA04F421EA0401A5
:1006B000994005FA03F322EA03031943002807DBF4
:1006C0000901C9B2074B195430BC70470023E9E750
:1006D00000F00F000901C9B2034B1954F4E700BF41
:1006E00000ED00E000E400E014ED00E0002807DB8E
:1006F00000F01F02400901239340024A42F82030D3
:10070000704700BF00E100E00138B0F1807F0AD2FD
:10071000064B5860064AF02182F8231000209860AA
:1007200007221A6070470120704700BF10E000E008
:1007300000ED00E000230F2B00F2E280F0B482B065
:1007400039E0092200E00022B2403A4302346D4E03
:1007500046F824206C4A1468EA4302EA04064F680B
:1007600017F4803F01D045EA0406674C26606468B0
:1007700002EA04064F6817F4003F01D045EA040678
:10078000614C6660A46802EA04064F6817F4801F93
:1007900001D045EA04065C4CA660E46822404E683D
:1007A00016F4001F01D045EA0402574CE260013301
:1007B0000F2B00F2A28001229A400C6804EA020585
:1007C000AA42F4D14C68122C18BF022C10D1DE08BA
:1007D000083650F826C003F00704A7000F24BC40D9
:1007E0002CEA040C0C69BC4044EA0C0440F8264096
:1007F00004685F000326BE40F64306EA040C4C681A
:1008000004F00304BC4044EA0C0404604C6804F1A6
:10081000FF3C112C18BFBCF1010F01D9122C11D1D2
:10082000846806EA040CCC68BC4044EA0C0484608A
:10083000446824EA020C4C68C4F300129A4042EA6D
:100840000C024260C26816408A68BA403243C260F5
:100850004A6812F0805FAAD02C4A546C44F4804459
:100860005464526C02F480420192019A9C08A61CC6
:10087000244A52F8267003F0030296000F22B24079
:1008800027EA0207224A90423FF45DAF02F58062F8
:10089000904222D002F58062904220D002F5806220
:1008A00090421ED002F5806290421CD002F5806218
:1008B00090421AD002F58062904218D002F5806210
:1008C000904216D002F58062904214D002F5806208
:1008D00090423FF436AF0A2236E7012234E7022283
:1008E00032E7032230E704222EE705222CE7062216
:1008F0002AE7072228E7082226E702B0F0BC704763
:10090000704700BF00380140003C01400038024001
:100910000000024012B9090481617047816170478B
:10092000024A136843F480731360704700700040FC
:10093000002800F0DC8170B582B00446036813F033
:10094000010F29D0A24B9B6803F00C03042B1AD093
:100950009F4B9B6803F00C03082B0FD06368B3F523
:10096000803F40D0002B54D1994B1A6822F480323A
:100970001A601A6822F480221A6039E0944B5B688E
:1009800013F4800FEAD0924B1B6813F4003F03D09E
:100990006368002B00F0AD81236813F0020F75D05F
:1009A0008B4B9B6813F00C0F5ED0894B9B6803F058
:1009B0000C03082B53D0E368002B00F08A80844A94
:1009C000136843F001031360FFF746FE0546804BB2
:1009D0001B6813F0020F73D1FFF73EFE401B022885
:1009E000F5D9032088E17A4A136843F48033136011
:1009F00063682BB3FFF730FE0546754B1B6813F495
:100A0000003FC9D1FFF728FE401B6428F5D9032019
:100A100072E1B3F5A02F09D06D4B1A6822F4803231
:100A20001A601A6822F480221A60E1E7684B1A689B
:100A300042F480221A601A6842F480321A60D7E7C2
:100A4000FFF70AFE0546624B1B6813F4003FA3D074
:100A5000FFF702FE401B6428F5D903204CE15C4BF4
:100A60005B6813F4800FA6D1594B1B6813F0020F7B
:100A700004D0E368012B01D001203DE1544A136802
:100A800023F0F803216943EAC1031360236813F0DC
:100A9000080F46D0636983B34D4A536F43F0010397
:100AA0005367FFF7D9FD0546494B5B6F13F0020F03
:100AB00037D1FFF7D1FD401B0228F5D903201BE1F8
:100AC000434A136823F0F803216943EAC103136022
:100AD000DCE73F4A136823F001031360FFF7BCFD16
:100AE00005463B4B1B6813F0020FCFD0FFF7B4FD58
:100AF000401B0228F5D90320FEE0354A536F23F04E
:100B000001035367FFF7A8FD0546314B5B6F13F0F8
:100B1000020F06D0FFF7A0FD401B0228F5D90320E5
:100B2000EAE0236813F0040F7ED0294B1B6C13F00E
:100B3000805F1ED1264B1A6C42F080521A641B6CE7
:100B400003F080530193019B0125224B1B6813F492
:100B5000807F10D0A368012B21D0002B3CD11C4BEF
:100B60001A6F22F001021A671A6F22F004021A6744
:100B70001AE00025E9E7174A136843F4807313600D
:100B8000FFF76AFD0646134B1B6813F4807FE1D123
:100B9000FFF762FD801B6428F5D90320ACE00C4A06
:100BA000136F43F001031367A3685BB3FFF754FDB2
:100BB0000646074B1B6F13F0020F34D1FFF74CFDB5
:100BC000801B41F288339842F3D9032094E000BFA0
:100BD0000038024000700040052B09D0484B1A6FC6
:100BE00022F001021A671A6F22F004021A67DBE78B
:100BF000434B1A6F42F004021A671A6F42F0010267
:100C00001A67D1E7FFF728FD06463D4B1B6F13F02F
:100C1000020F08D0FFF720FD801B41F28833984275
:100C2000F3D9032068E0F5B9A369002B63D0344AF7
:100C3000926802F00C02082A60D0022B19D0304AC8
:100C4000136823F080731360FFF706FD04462C4BF6
:100C50001B6813F0007F48D0FFF7FEFC001B022842
:100C6000F5D9032048E0264A136C23F0805313641F
:100C7000DAE7234A136823F080731360FFF7ECFC74
:100C800005461F4B1B6813F0007F06D0FFF7E4FCFE
:100C9000401B0228F5D903202EE0E369226A1343A2
:100CA000626A43EA8213A26A5208013A43EA0243A3
:100CB000E26A43EA0263226B43EA0273104A53601A
:100CC000136843F080731360FFF7C6FC04460C4BB7
:100CD0001B6813F0007F06D1FFF7BEFC001B022843
:100CE000F5D9032008E0002006E0002004E0012000
:100CF0007047012000E0002002B070BD0120FBE73A
:100D000000380240324B9B6803F00C03042B5CD08C
:100D1000082B01D02F4870472DE9F04B2C4B5A6817
:100D200002F03F025B6813F4800F2BD0284B5B6806
:100D3000C3F388131E4600275C010025E41A65EB07
:100D40000705A90141EA9461A001001B61EB0501BF
:100D5000CB0043EA5073C400A01943EB07014B02D8
:100D600043EAD0534402204619460023FFF768FAAD
:100D7000174B5B68C3F3014301335B00B0FBF3F037
:100D8000BDE8F08B124B5B68C3F388131E46002747
:100D90005C010025E41A65EB0705A90141EA9461AD
:100DA000A001001B61EB0501CB0043EA5073C400B6
:100DB000A01943EB07018B0243EA905384022046BB
:100DC00019460023FFF73CFAD2E70348704700BFFB
:100DD000003802400024F40000127A00002800F0DD
:100DE000A28070B50446524B1B6803F00F038B4280
:100DF0000CD24F4A136823F00F030B4313601368A0
:100E000003F00F038B4201D0012070BD236813F063
:100E1000020F17D013F0040F04D0464A936843F42E
:100E2000E0539360236813F0080F04D0414A93689D
:100E300043F4604393603F4A936823F0F003A06853
:100E4000034393600D46236813F0010F31D06368AC
:100E5000012B20D0022B25D0364A126812F0020F47
:100E600063D034498A6822F0030213438B60FFF792
:100E7000F3FB06462F4B9B6803F00C036268B3EB51
:100E8000820F16D0FFF7E8FB801B41F288339842AF
:100E9000F0D90320B9E7274A126812F4003FE0D1E5
:100EA0000120B2E7234A126812F0007FD9D1012055
:100EB000ABE71F4B1B6803F00F03AB420CD91C4A76
:100EC000136823F00F032B431360136803F00F0321
:100ED000AB4201D0012098E7236813F0040F06D03D
:100EE000144A936823F4E053E1680B43936023684A
:100EF00013F0080F07D00F4A936823F46043216969
:100F000043EAC1039360FFF7FDFE0A4B9B68C3F3FE
:100F10000313094AD35CD840084B18600020FFF740
:100F20005FFB002071E70120704701206DE700BFE3
:100F3000003C02400038024048370008080000200A
:100F4000014B1868704700BF0800002008B5FFF784
:100F5000F7FF044B9B68C3F38223034AD35CD8405A
:100F600008BD00BF003802405837000808B5FFF739
:100F7000E7FF044B9B68C3F34233034AD35CD8407A
:100F800008BD00BF0038024058370008F0B583B0F4
:100F90000446036813F0010F0CD0B54B9A6822F495
:100FA00000029A609A68416B0A439A60436BC3B12E
:100FB000002600E00026236813F4002F15D0AC4A69
:100FC000D2F88C3023F44013E16B0B43C2F88C3021
:100FD000E36BB3F5801F06D0002B00F045810025A0
:100FE00004E00126E7E70126F6E70025236813F46D
:100FF000801F0FD09E4AD2F88C3023F44003216C1E
:101000000B43C2F88C30236CB3F5800F00F02E81B7
:1010100003B90125236813F0807F00D0012613F067
:10102000200F40F02781236813F0100F0CD0904B55
:10103000D3F88C2022F08072C3F88C20D3F88C2057
:10104000A16B0A43C3F88C20236813F4804F08D0A7
:10105000874AD2F8903023F44033616E0B43C2F8D4
:101060009030236813F4004F08D0814AD2F89030B2
:1010700023F44023A16E0B43C2F89030236813F48D
:10108000803F08D07A4AD2F8903023F44013E16EC2
:101090000B43C2F89030236813F4003F08D0744A21
:1010A000D2F8903023F44003216F0B43C2F8903004
:1010B000236813F0400F08D06D4AD2F8903023F027
:1010C0000303616C0B43C2F89030236813F0800F68
:1010D00008D0674AD2F8903023F00C03A16C0B4380
:1010E000C2F89030236813F4807F08D0604AD2F8A9
:1010F000903023F03003E16C0B43C2F8903023684A
:1011000013F4007F08D05A4AD2F8903023F0C0037D
:10111000216D0B43C2F89030236813F4806F08D020
:10112000534AD2F8903023F44073616D0B43C2F8F8
:101130009030236813F4006F08D04D4AD2F89030F5
:1011400023F44063A16D0B43C2F89030236813F47D
:10115000805F08D0464AD2F8903023F44053E16DC6
:101160000B43C2F89030236813F4005F08D0404A64
:10117000D2F8903023F44043216E0B43C2F89030F4
:10118000236813F4800F08D0394AD2F8903023F046
:101190008063A16F0B43C2F89030236813F4001FE3
:1011A0000DD0334AD2F8903023F00063E16F0B4347
:1011B000C2F89030E36FB3F1006F00F0C180236894
:1011C00013F0080F00D0012513F4802F08D0284A0F
:1011D000D2F8903023F04073616F0B43C2F8903027
:1011E000236813F4000F09D0214AD2F8903023F07D
:1011F0008053D4F880100B43C2F89030236813F06A
:10120000806F09D01A4AD2F8903023F00053D4F8F6
:1012100084100B43C2F89030236813F0006F09D09C
:10122000134AD2F88C3023F00073D4F888100B43A3
:10123000C2F88C30236813F0805F09D00C4AD2F8D2
:101240008C3023F08063D4F88C100B43C2F88C30C0
:10125000002E77D12368B3F1007F73D0002D40F0CA
:101260000481002003B0F0BD0125BFE60126CFE6D2
:1012700000380240B74B1A6C42F080521A641B6C63
:1012800003F080530193019BB34A136843F48073C6
:101290001360FFF7E1F90746AF4B1B6813F4807F3B
:1012A00006D1FFF7D9F9C01B6428F5D90320D9E787
:1012B000A84B1B6F13F4407315D0226B02F44072DD
:1012C0009A4210D0A34B1A6F22F44072196F41F466
:1012D00080311967196F21F4803119671A671B6F04
:1012E00013F0010F12D1236B03F44072B2F5407F6B
:1012F0001DD0984A936823F4F813936095490B6FB7
:10130000226BC2F30B0213430B678CE6FFF7A4F9C1
:101310000746904B1B6F13F0020FE4D1FFF79CF9C7
:10132000C01B41F288339842F3D903209AE78948D9
:10133000826822F4F812894919400A438260DDE785
:1013400001253CE7834A136823F080631360FFF7AD
:1013500083F906467F4B1B6813F0006F06D0FFF73A
:101360007BF9801B6428F5D903207BE7236813F001
:10137000010F13D0636B8BB9764AD2F88430D2F860
:101380008410606803F4403343EA801301F0706115
:101390000B43A16843EA0173C2F88430236813F455
:1013A000002F03D0E26BB2F5801F06D013F4801F2C
:1013B0001ED0236CB3F5800F1AD1664AD2F8843060
:1013C000D2F88410606803F4403343EA8013E06885
:1013D00043EA006301F0E0410B43C2F88430D2F8E5
:1013E0008C3023F01F03616A01390B43C2F88C3043
:1013F000236813F0807F11D0564AD2F88400D2F8C7
:101400008410666823691B0443EA861300F0706049
:10141000034301F0E0410B43C2F88430236813F02A
:10142000007F0DD0626823691B0443EA8213E268DF
:1014300043EA0263A26843EA0273464AC2F8843070
:10144000444A136843F080631360FFF705F90646CA
:10145000404B1B6813F0006F7FF400AFFFF7FCF800
:10146000801B6428F4D90320FCE63A4A136823F071
:1014700080531360FFF7F0F80546364B1B6813F0F6
:10148000005F06D0FFF7E8F8401B6428F5D9032079
:10149000E8E6236813F4002F01D0E26B22B113F4C5
:1014A000801F1DD0236CDBB92A4AD2F88830D2F8CD
:1014B0008810606903F4403343EA8013A06943EA6B
:1014C000006301F0E0410B43C2F88830D2F88C3061
:1014D00023F4F853A16A013943EA0123C2F88C309E
:1014E000236813F4001F03D0E36FB3F1006F37D00C
:1014F000236813F0080F19D0164AD2F88810D2F8D2
:101500008830606903F4403343EA801301F070616E
:101510000B43E16943EA0173C2F88830D2F88C309A
:1015200023F44033E16A0B43C2F88C30094A136854
:1015300043F080531360FFF78FF80446054B1B6898
:1015400013F0005F1FD1FFF787F8001B6428F5D95F
:10155000032087E60038024000700040FFFCFF0FC8
:101560000A4AD2F88800D2F888106569236A1B04F9
:1015700043EA851300F07060034301F0E0410B4340
:10158000C2F88830B4E700206CE600BF00380240A3
:1015900010B4036A046A24F001040462846924F02C
:1015A000F00444EA021223F00A030B43826103624F
:1015B0005DF8044B704710B4036A23F01003036214
:1015C0008469036A24F4704444EA023223F0A003DD
:1015D00043EA0113826103625DF8044B704783683C
:1015E00023F07003194341F0070181607047000048
:1015F0000268D36843F00103D36002689168064B28
:101600000B40062B18BFB3F5803F03D0136843F09F
:101610000103136000207047070001007047704706
:101620007047704710B5044603681A6912F0020F3C
:1016300011D0DA6812F0020F0DD06FF002021A61B9
:101640000123037703689B6913F0030F79D0FFF739
:10165000E6FF0023237723681A6912F0040F12D0E3
:10166000DA6812F0040F0ED06FF004021A61022340
:10167000237723689B6913F4407F68D02046FFF7E7
:10168000CEFF0023237723681A6912F0080F12D0C7
:10169000DA6812F0080F0ED06FF008021A61042306
:1016A00023772368DB6913F0030F57D02046FFF739
:1016B000B6FF0023237723681A6912F0100F12D0A7
:1016C000DA6812F0100F0ED06FF010021A610823C2
:1016D00023772368DB6913F4407F46D02046FFF769
:1016E0009EFF0023237723681A6912F0010F03D0AD
:1016F000DA6812F0010F3FD123681A6912F0800FE7
:1017000003D0DA6812F0800F3DD123681A6912F411
:10171000807F03D0DA6812F0800F3BD123681A690A
:1017200012F0400F03D0DA6812F0400F39D123686D
:101730001A6912F0200F03D0DA6812F0200F37D1A7
:1017400010BDFFF76BFF2046FFF76AFF81E72046D9
:10175000FFF764FF2046FFF763FF92E72046FFF79D
:101760005DFF2046FFF75CFFA3E72046FFF756FF2B
:101770002046FFF755FFB4E76FF001021A612046DB
:1017800000F0CEFEB8E76FF080021A61204600F04C
:1017900064F9BAE76FF480721A61204600F05EF9CE
:1017A000BCE76FF040021A612046FFF73AFFBEE740
:1017B0006FF020021A61204600F04EF9C0E70000E9
:1017C00070B403683A4CA04214BF00240124B0F165
:1017D000804F14BF224644F00102AAB9354DA842F9
:1017E00014BF00250125344EB0420DD065B905F176
:1017F000804505F58235A84214BF0025012506F570
:101800000066B04200D01DB123F070034D682B4339
:10181000002A33D1274A904214BF00220122264DCC
:10182000A8422BD052BB02F1804202F58232904294
:1018300014BF0022012205F50065A8421ED0EAB9B6
:101840001E4A904214BF0022012205F59A35A84293
:1018500014D09AB91A4A904214BF0022012205F509
:101860000065A8420AD04AB9164A904214BF002225
:101870000122A5F59635A84200D01AB123F4407391
:10188000CA68134323F080034A69134303608A68DC
:10189000C2620A6882620C4B984214BF234644F02D
:1018A00001030BB10B6903630123436170BC7047F3
:1018B00000000140000800400004004000440140D6
:1018C000001800400020004000040140A8B110B5FD
:1018D000044690F83D305BB1022384F83D30211D71
:1018E0002068FFF76DFF012384F83D30002010BD14
:1018F00080F83C3000F018FFEEE70120704710B48C
:10190000846824F47F4442EA03230B432343836027
:101910005DF8044B7047000090F83C30012B64D018
:1019200010B50446012380F83C30022380F83D3096
:10193000026890682E4B034093600B68402B4AD09E
:1019400013D9602B3DD01ED9702B28D0B3F5005F82
:1019500030D1CB684A6889682068FFF7D0FF2268D9
:10196000936843F48043936024E0102B06D004D99D
:10197000202B03D0302B01D01CE0DBB919462068A6
:10198000FFF72DFE16E0502B14D1CA684968206875
:10199000FFF7FEFD50212068FFF721FE0AE0CB682B
:1019A0004A6889682068FFF7AAFF2268936843F0B5
:1019B00077039360012384F83D30002084F83C00D5
:1019C00010BDCA6849682068FFF7F5FD60212068EE
:1019D000FFF705FEEEE7CA6849682068FFF7D8FD03
:1019E00040212068FFF7FBFDE4E70220704700BFBD
:1019F0008800FEFF90F83C30012B27D070B4012303
:101A000080F83C30022380F83D3003685A689D68B6
:101A10000F4E104CA34218BFB34203D122F4700200
:101A20004C68224322F070020C68224325F08004A7
:101A3000896821435A6003689960012380F83D302A
:101A4000002380F83C30184670BC70470220704775
:101A500000000140000401407047704770470000DB
:101A600010B5044683680269134342691343C2698F
:101A7000134301680868994A024013430B602268C7
:101A8000536823F44053E1680B435360A269236A0F
:101A90001A4321688B6823F4306313438B602368F7
:101AA0008F4A934218D08F4A934228D08E4A93424D
:101AB0003DD08E4A934250D08D4A934262D08D4A97
:101AC000934277D08C4A934200F08C808B4A9342A9
:101AD00000F0A0801023B6E0894BD3F8903003F0DB
:101AE0000303032B09D8DFE803F00204AD0601234A
:101AF000A9E00423A7E00823A5E01023A3E0804B7E
:101B0000D3F8903003F00C030C2B0ED8DFE803F071
:101B1000070D0D0D090D0D0DA90D0D0D0B00002369
:101B200091E004238FE008238DE010238BE0744BB9
:101B3000D3F8903003F03003102B0AD006D9202BB5
:101B400000F09180302B06D108237CE01BB90023E4
:101B500079E0042377E0102375E0694BD3F89030E7
:101B600003F0C003402B09D005D9802B7DD0C02BBA
:101B700006D1082367E01BB9002364E0042362E078
:101B8000102360E05E4BD3F8903003F44073B3F55C
:101B9000807F0BD007D9B3F5007F68D0B3F5407FC5
:101BA00006D108234FE01BB900234CE004234AE090
:101BB000102348E0524BD3F8903003F44063B3F560
:101BC000806F0BD007D9B3F5006F52D0B3F5406FDB
:101BD00006D1082337E01BB9012334E0042332E0A7
:101BE000102330E0464BD3F8903003F44053B3F564
:101BF000805F0BD007D9B3F5005F3CD0B3F5405FF1
:101C000006D108231FE01BB900231CE004231AE0BF
:101C1000102318E03A4BD3F8903003F44043B3F567
:101C2000804F0BD007D9B3F5004F26D0B3F5404F06
:101C300006D1082307E01BB9002304E0042302E0D7
:101C4000102300E00223E269B2F5004F17D0082B01
:101C500000F2B380DFE803F0768B95B19EB1B1B1AD
:101C6000A8000223EFE70223EDE70223EBE70223BC
:101C7000E9E70223E7E70223E5E70223E3E7082B8E
:101C80005DD8DFE803F0051F3F5C485C5C5C5300F7
:101C9000FFF75CF96268530803EB4003B3FBF2F310
:101CA0009BB20020A3F110014FF6EF72914200F2B7
:101CB00087809AB222F00F02C3F3420313432268D3
:101CC000D36050E0FFF752F96268530803EB40031A
:101CD000B3FBF2F39BB20020E4E700BFF369FFEF30
:101CE000001001400044004000480040004C00400B
:101CF000005000400014014000780040007C00408B
:101D0000003802406268304B03EB5203B3FBF2F33E
:101D10009BB20020C6E7FEF7F5FF6268530803EBAD
:101D20004003B3FBF2F39BB20020BBE762685308A9
:101D300003F58033B3FBF2F39BB20020B2E701203E
:101D40000023AFE7FFF702F9626800EB5203B3FB31
:101D5000F2F39BB20020A3F110014FF6EF72914213
:101D600030D82268D36000232366636610BDFFF776
:101D7000FDF8626800EB5203B3FBF2F39BB2002064
:101D8000E9E76268114B03EB5203B3FBF2F39BB23A
:101D90000020E0E7FEF7B6FF626800EB5203B3FBFA
:101DA000F2F39BB20020D6E76268530803F50043C4
:101DB000B3FBF2F39BB20020CDE701200023CAE77A
:101DC0000120D0E70120CEE70048E8010024F4001C
:101DD000436A13F0010F06D00268536823F40033FE
:101DE000816A0B435360436A13F0020F06D0026806
:101DF000536823F48033C16A0B435360436A13F082
:101E0000040F06D00268536823F48023016B0B4350
:101E10005360436A13F0080F06D00268536823F436
:101E20000043416B0B435360436A13F0100F06D01D
:101E30000268936823F48053816B0B439360436A79
:101E400013F0200F06D00268936823F40053C16B8F
:101E50000B439360436A13F0400F0AD00268536843
:101E600023F48013016C0B435360036CB3F5801FA4
:101E70000BD0436A13F0800F06D00268536823F436
:101E80000023816C0B43536070470268536823F44E
:101E9000C003416C0B435360EBE72DE9F04105466D
:101EA0000F4616469846069C2B68DB6937EA030303
:101EB0000CBF01230023B3421CD1B4F1FF3FF3D088
:101EC000FEF7CAFBA0EB0800A04201D8002CEBD122
:101ED0002A68136823F4D07313602A68936823F088
:101EE0000103936020236B67AB67002385F8703094
:101EF000032000E00020BDE8F0812DE9F04182B030
:101F00001E46436F202B59D104460D469046B2FA27
:101F100082F35B09002908BF0123002B53D190F8FD
:101F20007030012B51D0012380F870300023C3673B
:101F300021234367FEF790FB0746A4F85080A4F8DE
:101F40005280A368B3F5805F02D04FF0000810E024
:101F500023690BB34FF000080BE038F8023B22680E
:101F6000C3F308039362B4F85230013B9BB2A4F868
:101F70005230B4F852309BB28BB100963B460022EF
:101F800080212046FFF789FF08BB002DE5D015F81A
:101F9000012B23689A62E6E7A8460025E9E7009648
:101FA0003B46002240212046FFF777FF034680B9D9
:101FB00020226267002284F8702000E00223184685
:101FC00002B0BDE8F0810123F9E70223F7E703231C
:101FD000F5E70323F3E72DE9F04383B01E46836F53
:101FE000202B7ED104460D469046B2FA82F35B095F
:101FF000002908BF0123002B77D190F87030012B06
:1020000075D0012380F870300023C36722238367D3
:10201000FEF722FB0746A4F85880A4F85A80A3686C
:10202000B3F5805F06D0A3B9226972B9FF22A4F884
:102030005C2014E0226922B940F2FF12A4F85C206F
:102040000DE0FF22A4F85C2009E07F22A4F85C20C8
:1020500005E0B3F1805F0AD00022A4F85C20B4F858
:102060005C80B3F5805F0CD04FF000091DE0226961
:102070001AB97F22A4F85C20F1E73F22A4F85C2083
:10208000EDE7236913B14FF000090EE0A9460025E2
:102090000BE023685B6A08EA030329F8023BB4F803
:1020A0005A30013B9BB2A4F85A30B4F85A309BB274
:1020B0008BB100963B46002220212046FFF7EDFE23
:1020C000B8B9002DE5D023685A6A5FFA88F3134047
:1020D00005F8013BE3E72023A367002084F87000A4
:1020E00000E0022003B0BDE8F0830120FAE70220FF
:1020F000F8E70320F6E710B582B004460023C36773
:10210000FEF7AAFA2268126812F0080F07D12023FE
:102110006367A367002084F8700002B010BD6FF001
:102120007E430093034600224FF400112046FFF740
:10213000B4FE0028EBD00320EFE768B310B50446E7
:10214000436F03B3242363672268136823F00103FA
:1021500013602046FFF784FC012813D0636ABBB9E3
:102160002268536823F4904353602268936823F0F5
:102170002A0393602268136843F00103136020462A
:10218000FFF7B9FF10BD80F8703000F0EDFAD9E725
:102190002046FFF71DFEE3E70120704710B5144607
:1021A0000146024800F088FC204610BD6037000858
:1021B0002DE9F04F8DB000240794089409940A94F7
:1021C0000B945E4B1A6B42F004021A631A6B02F016
:1021D00004020192019A1A6B42F080021A631A6B90
:1021E00002F080020292029A1A6B42F001021A6314
:1021F0001A6B02F001020392039A1A6B42F0020278
:102200001A631A6B02F002020492049A1A6B42F0EB
:1022100008021A631A6B02F008020592059A1A6BFB
:1022200042F040021A631B6B03F040030693069BC7
:10223000DFF814A122464FF481415046FEF76AFBB5
:102240003F4F224640213846FEF764FB4FF4005BC7
:10225000CDF81CB03B4B08930994DFF8F09007A928
:102260004846FEF767FA3223079302260896099438
:1022700003250A954FF00B08CDF82C8007A9484696
:10228000FEF758FA86230793089609940A95CDF825
:102290002C80A9F5006907A94846FEF74BFACDF84E
:1022A0001CB0089609940A95CDF82C8007A95046D1
:1022B000FEF740FA4FF4814307934FF0010BCDF83E
:1022C00020B009940A9407A95046FEF733FA402338
:1022D0000793CDF820B009940A9407A93846FEF771
:1022E00029FA802307930894099407A93846FEF732
:1022F00021FA4FF4E8530793089609940A950A23A4
:102300000B9307A94846FEF715FA4FF4007307939D
:102310000894099407A94846FEF70CFA4FF4205395
:102320000793089609940A95CDF82C8007A938469A
:10233000FEF700FA0DB0BDE8F08F00BF0038024094
:102340000018024000001110000402400008024082
:1023500030B589B000240494059406940794019440
:10236000029403940E4D0F4B2B6096236B60AC6070
:102370004CF6C773EB602C61AC612846FFF7A6FAF8
:102380004FF48053049304A92846FFF7C5FA01943B
:10239000039401A92846FFF72DFB09B030BD00BF0B
:1023A000B00000200008004008B50948094B036050
:1023B0004FF4E133436000238360C36003610C2268
:1023C00042618361C36103624362FFF7B6FE08BDE9
:1023D000F00000200048004010B5084B1C68084879
:1023E00000F06AFB04E0218A064800F065FB64699E
:1023F000002CF8D1044800F05FFB10BD8C000020D9
:10240000683700086C37000874370008F8B50746CD
:102410000E4615461C46182000F096FA07604660E6
:102420000581069B0382C460024B1A6842611860F2
:10243000F8BD00BF8C000020024B5A684261586012
:10244000704700BF8C000020024B1A684261186080
:10245000704700BF8C000020024B186842691A6068
:10246000704700BF8C000020024B586842695A60D8
:10247000704700BF8C000020024B1868B0FA80F053
:10248000400970478C000020024B5868B0FA80F079
:10249000400970478C000020044B1B68002001E0BD
:1024A00001305B69002BFBD1704700BF8C0000201E
:1024B000F8B5FFF7F1FF064600271BE05B6952699C
:1024C0000131B14214DA1D8A148AA542F6D25C6841
:1024D00055685D6054601C8915891D811481DC6814
:1024E000D568DD60D4601C8A158A1D821482E5E7F8
:1024F0000137013E431EBB4204DD034B1B685A6992
:102500000121DEE7F8BD00BF8C00002010B582B0CD
:10251000BDF810400094FFF779FF002002B010BD15
:1025200038B50B4B1A68128A5B681B8A9A4200D82E
:102530000DD1FFF791FF0546FFF796FF04462846A9
:10254000FFF77AFF2046FFF77FFFFFF7B1FF38BDA7
:102550008C00002010B5B8B0342200212BA800F068
:10256000FBF9002426942794289429942A949022F5
:10257000214602A800F0F0F9FEF7D2F91A4B1A6CC6
:1025800042F080521A641B6C03F080530093009B4E
:10259000164A136823F4404343F4804313601368DE
:1025A00003F440430193019B02232B9301232E93B9
:1025B00010232F9331942BA8FEF7BAF90F232693FB
:1025C000279428944FF4805329932A94214626A8CF
:1025D000FEF704FC4FF480730293159402A8FEF7F3
:1025E000D5FC38B010BD00BF00380240007000407C
:1025F00030B583B0FEF718F8FFF7ACFFFFF7D8FD52
:10260000FFF7A6FEFFF7D0FE1D48FEF7F1FF1D4DB8
:102610000124009442F2107322461B492846FFF71A
:1026200075FF009442F21073224618492846FFF7BE
:102630006DFFFFF73DFFFFF7CFFE17E0012200928D
:1026400042F2107312490F48FFF760FF0AE0114B86
:102650005B681C68DA6819895868A04701460E480B
:1026600000F02AFAFFF710FF0028F0D0FFF704FF70
:102670000028E3D1FFF7F0FEFFF7DEFEF2E700BF30
:10268000B00000209D21000878370008803700083E
:10269000883700088C0000209037000808B54FF4F8
:1026A0007A7392B20248FFF728FC002008BD00BFF1
:1026B000F000002038B50C460D4D4FF6FF73012297
:1026C0002846FFF788FC0A23012221462846FFF707
:1026D00014FC23780D2B01D0012038BD0A230122E0
:1026E00004492846FFF709FC0A232370F4E700BFDA
:1026F000F00000209837000882B00A4B1A6C42F0B4
:1027000080521A641A6C02F080520092009A5A6C3D
:1027100042F480425A645B6C03F480430193019B52
:1027200002B070470038024002680E4B9A4200D057
:10273000704700B583B003F50C331A6C42F0040205
:102740001A641B6C03F004030193019B00221146E1
:102750001E20FDF799FF1E20FDF7C8FF03B05DF8AE
:1027600004FB00BF0008004000B589B000230393BC
:1027700004930593069307930268144B9A4202D080
:1027800009B05DF804FB03F5F8331A6C42F48022BB
:102790001A641A6C02F480220192019A1A6B42F0B8
:1027A00008021A631B6B03F008030293029B4FF4A9
:1027B0004073039302230493032306930723079391
:1027C00003A90348FDF7B6FFDAE700BF0048004061
:1027D000000C02407047FEE7FEE7FEE7FEE77047A9
:1027E0007047704708B5FDF72BFF08BD08B50248D4
:1027F000FEF718FF08BD00BFB000002008B5034673
:102800000B4A126842B10A4A106803446A4693426E
:1028100006D8074A136008BD054A06491160F2E769
:1028200000F068F80C2303604FF0FF30F3E700BFBF
:102830009C000020780100204FF0FF3070474FF4DB
:1028400000534B6000207047012070470020704704
:1028500010B40F4AD2F8883043F47003C2F88830BD
:102860000C4B196841F001011960002098601C6848
:1028700009492140196009495960196821F48021EA
:102880001960D8604FF0006393605DF8044B7047A7
:1028900000ED00E000380240FFFFF6FE103000249B
:1028A000DFF834D0002103E00C4B5B584350043177
:1028B0000B480C4B42189A42F6D30B4A02E0002315
:1028C00042F8043B094B9A42F9D3FFF7C1FF00F0ED
:1028D00017F8FFF78DFE7047000008204438000805
:1028E0000000002070000020700000207401002013
:1028F000FEE70000014B1868704700BF0C00002085
:1029000070B50D4E0D4CA41BA4100025A54209D195
:102910000B4E0C4C00F00CFFA41BA4100025A5428C
:1029200005D170BD56F8253098470135EEE756F8C9
:10293000253098470135F2E73C3800083C3800085C
:102940003C38000840380008024B0146186800F087
:1029500059B800BF0C00002002440346934200D146
:10296000704703F8011BF9E738B50546002945D043
:1029700051F8043C0C1F002BB8BFE41800F08EF98E
:102980001F4A1368104633B9636014602846BDE8D7
:10299000384000F084B9A3420CD9216862189342F0
:1029A00004BF1A685B68636004BF52182260046049
:1029B000ECE713465A680AB1A242FAD919685818C6
:1029C000A0420BD120680144581882421960DDD121
:1029D000106852685A6001441960D7E702D90C2385
:1029E0002B60D3E7206821188A4204BF116852681F
:1029F000626004BF091821605C60C7E738BD00BF92
:102A0000A400002070B5CD1C25F0030508350C2D61
:102A100038BF0C25002D064601DBA94203D90C2343
:102A20003360002070BD00F039F9214A1468214656
:102A300091B9204C23681BB9304600F055F820604E
:102A40002946304600F050F8431C24D10C23336053
:102A5000304600F024F9E4E70B685B1B18D40B2B1D
:102A60000FD90B60CD50CC18304600F018F904F1A6
:102A70000B00231D20F00700C31AD3D05A42E250A6
:102A8000D0E78C424B6816BF636013600C46EBE7DF
:102A90000C464968CCE7C41C24F00304A04205D0CE
:102AA000211A304600F020F80130CFD02560DBE756
:102AB000A4000020A80000200FB40A4B13B51C6826
:102AC00024B1A36913B9204600F05EF805AB049A5F
:102AD000A1680193204600F00DF902B0BDE8104056
:102AE00004B070470C00002038B5064C00230546A2
:102AF00008462360FFF782FE431C02D1236803B11E
:102B00002B6038BD70010020002310B50446C0E9D9
:102B10000033836081814366C281C0E904338361ED
:102B2000194608225C30FFF717FF054B6362054B1F
:102B3000A362054BE362054B2462236310BD00BF13
:102B400031320008533200088B320008AF320008DF
:102B5000014900F085B800BF8935000870B54A1EEC
:102B6000682555430E4605F17401FFF74BFF0446F7
:102B700040B10021C0E900160C30A06005F16802E8
:102B8000FFF7EAFE204670BD836910B5044633BBEB
:102B9000C0E912330365124B124A1B6882629842E5
:102BA00004BF0123836100F01FF86060204600F03D
:102BB0001BF8A060204600F017F80022E060042116
:102BC0006068FFF7A1FF01220921A068FFF79CFFC1
:102BD00002221221E068FFF797FF0123A36110BDD5
:102BE0009C370008512B0008F8B51B4B1E68B369D1
:102BF000074613B93046FFF7C7FF4836D6E9013418
:102C0000013B03D5336833B13668F7E7B4F90C50AC
:102C10006DB16834F4E704213846FFF79FFF306058
:102C20000028F1D10C233B6004462046F8BD0B4B35
:102C30006566C4E90055A560C4E90335C4E90555D6
:102C40000822294604F15C00FFF786FEC4E90D5511
:102C5000C4E91255E9E700BF9C3700080100FFFFF7
:102C60002DE9F8438046894600F14804002614B94E
:102C70003046BDE8F883D4E90175013F01D52468E9
:102C8000F5E7AB89012B07D9B5F90E30013303D035
:102C900029464046C84706436835EEE77047704707
:102CA0009368013B002B10B4936008DA9469A34247
:102CB00001DB0A2903D15DF8044B00F0FDBA13686B
:102CC000581C1060197008465DF8044B7047F8B541
:102CD00006460F461446D518AC4201D1002007E045
:102CE0003A4614F8011B3046FFF7DAFF431CF3D1D4
:102CF000F8BD00002DE9F04F0C469DB017461D466B
:102D0000064618B183690BB9FFF73EFF7C4B9C4226
:102D100058D17468A38918075ED52369002B5BD04E
:102D20000023099320238DF8293030238DF82A3091
:102D300003954FF0010BB846454615F8013B0BB122
:102D4000252B54D1B8EB070A0BD053463A462146FF
:102D50003046FFF7BCFF013000F0C280099B5344AE
:102D6000099398F80030002B00F0BA8000234FF050
:102D7000FF32CDE90523049307938DF853301A935E
:102D8000A846052218F8011B5E48FDF7D9FB049BF5
:102D900078BBD90644BF20228DF853201A0744BFC0
:102DA0002B228DF853202A782A2A2AD0079AA8465F
:102DB00000200A25414611F8013B303B092B69D917
:102DC00060B324E0504B9C4201D1B468A2E74F4B62
:102DD0009C4208BFF4689DE72146304600F0D0FAD7
:102DE00000289DD04FF0FF301DB0BDE8F08FA84601
:102DF000A2E7444A801A0BFA00F0184304904546B3
:102E0000BEE7039A111D12680391002A01DB0792A5
:102E100004E0524243F002030792049398F8003012
:102E20002E2B0ED198F801302A2B38D1039B1A1D76
:102E30001B680392002BB8BF4FF0FF3308F1020864
:102E40000593334D98F8001003222846FDF778FBD0
:102E500040B14023401B03FA00F0049B034308F1F8
:102E60000108049398F800102A488DF828100622CB
:102E700008F10107FDF764FB002837D0264B1BBB88
:102E8000039B073323F0070308330393099B4B4449
:102E9000099350E705FB0232012088468AE70023A8
:102EA00008F10108059319460A25404610F8012B40
:102EB000303A092A03D9002BC3D00591C1E705FB9D
:102EC000012101238046F0E703AB00932246134B18
:102ED00004A93046AFF30080B0F1FF3F8146D5D161
:102EE000A3895B063FF57EAF09987DE703AB0093AE
:102EF00022460A4B04A9304600F088F8ECE700BFF0
:102F0000C037000800380008E0370008A037000884
:102F1000063800080A38000800000000CF2C00081E
:102F20002DE9F04791461F468A680B69DDF820803D
:102F30009342B8BF1346C9F8003091F843200646C3
:102F40000C4612B10133C9F800302368990642BF1C
:102F5000D9F800300233C9F80030256815F00605AD
:102F600007D104F1190AE368D9F800209B1AAB4293
:102F700028DC94F843302268003318BF01239206FE
:102F80002DD404F1430239463046C047013020D0E9
:102F90002368E568D9F8002003F00603042B08BF76
:102FA000AD1AA36822690CBF25EAE5750025934296
:102FB000C4BF9B1AED184FF000091A344D451AD1C1
:102FC000002008E00123524639463046C047013010
:102FD00003D14FF0FF30BDE8F0870135C3E7E118BA
:102FE0005A1C302081F84300224494F8451082F89E
:102FF00043100233C5E70123224639463046C04715
:103000000130E6D009F10109D8E700002DE9F043CD
:1030100001F1430C0C46097E85B06E291746064621
:1030200098460C9A00F0B38022D8632936D00AD88B
:10303000002900F0B980582900F0838004F142058E
:1030400084F8421032E0642901D06929F6D1206861
:103050001368050603F104012AD51B681160002BD3
:1030600003DA2D225B4284F843206F480A2239E0BC
:10307000732900F09D8008D86F2920D07029DDD1F8
:10308000236843F02003236003E0752917D07829D3
:10309000D4D1782384F84530644855E01368191D6D
:1030A0001B68116004F1420584F8423001238CE072
:1030B0001B68116010F0400F18BF1BB2CFE71368F8
:1030C0002568181D1060280601D51B6802E06806F7
:1030D000FBD51B8854486F2914BF0A2208220021FF
:1030E00084F843106568A560002DC0F295802168C2
:1030F00021F004012160002B3DD1002D40F08E8095
:103100006546082A0BD12368DB0708D52369626866
:103110009A42DEBF302305F8013C05F1FF35ACEBE8
:1031200005032361CDF800803B4603AA21463046C3
:10313000FFF7F6FE01304DD14FF0FF3005B0BDE88E
:10314000F083394884F84510136821681D1D1B68F9
:1031500015600A060BD5CA0744BF41F02001216063
:103160001BB9226822F0200222601022B7E74D0628
:1031700048BF9BB2EFE76546B3FBF2F102FB1133A8
:10318000C35C05F8013D0B460029F5D1B9E713688A
:1031900025686169181D106028061B6801D5196033
:1031A00002E06A06FBD51980002323616546B9E772
:1031B0001368191D11601D68626800212846FDF71B
:1031C000BFF908B1401B606063682361002384F885
:1031D0004330A7E723692A4639463046C0470130C5
:1031E000AAD023689B0713D4E068039B9842B8BF1A
:1031F0001846A3E701234A4639463046C047013006
:103200009AD00135E368039A9B1AAB42F2DCEBE7F4
:10321000002504F11909F5E7002BACD1037884F8F7
:10322000423004F142056CE71138000822380008EA
:1032300010B50C46B1F90E1000F046FA0028ABBFED
:10324000636DA3891B1823F48053ACBF6365A3810E
:1032500010BD2DE9F0411F468B89DB0505460C4664
:10326000164605D502230022B1F90E1000F0B6F97A
:10327000A389B4F90E1023F48053A38132463B4650
:103280002846BDE8F04100F069B810B50C46B1F928
:103290000E1000F0A3F9431CA38915BF606523F449
:1032A000805343F48053A38118BFA38110BDB1F9AB
:1032B0000E1000F0D3B80000F8B50E4614460546CF
:1032C00018B183690BB9FFF75FFC214B9C422AD1EF
:1032D0006C68A369A360A3891A072ED5236963B319
:1032E00023692068C01A6369F6B28342374604DC5A
:1032F0002146284600F048F928BBA368013BA3609B
:1033000023685A1C22601E7063690130834204D016
:10331000A389DB0719D50A2E17D12146284600F0CC
:1033200033F990B10FE00B4B9C4201D1AC68D0E770
:10333000094B9C4208BFEC68CBE72146284600F0C9
:103340001FF80028CCD04FF0FF373846F8BD00BF3B
:10335000C0370008E0370008A037000838B5074C30
:10336000054608461146002222601A46FFF796F9E4
:10337000431C02D1236803B12B6038BD70010020CB
:10338000324B70B51D6806460C4625B1AB6913B9C2
:103390002846FFF7F9FB2E4B9C420FD16C68B4F91D
:1033A0000C309AB215072CD4D00611D40922326001
:1033B00043F04003A3814FF0FF303EE0254B9C4299
:1033C00001D1AC68EBE7244B9C4208BFEC68E6E710
:1033D000510712D5616B41B104F14403994202D007
:1033E0003046FFF7C1FA00236363A38923F0240367
:1033F000A3810023636023692360A38943F008034A
:10340000A38123694BB9A38903F42073B3F5007F2B
:1034100003D02146304600F017F9A28912F00103CB
:103420000CD00023A36063695B42A361236953B995
:10343000B4F90C3013F08000BAD170BD920758BFB8
:103440006369A360F2E70020F7E700BF0C000020EB
:10345000C0370008E0370008A037000838B5064C30
:103460000023054608462360FFF7E6F9431C02D116
:10347000236803B12B6038BD700100208A892DE9D3
:10348000F041054610070C4658D44B68002B05DC6C
:103490000B6C002B02DC0020BDE8F081E66A002EF8
:1034A000F9D0002312F480522F68216A2B6032D0A9
:1034B000606DA3895A0705D56368C01A636B0BB1A9
:1034C000236CC01A00230246E66A216A2846B047E8
:1034D000431CA38906D129681D2948D8294ACA4016
:1034E000D60744D500226260D9042269226004D53F
:1034F000421C01D12B6803B96065616B2F60002904
:10350000C9D004F14403994202D02846FFF72CFAAF
:1035100000206063C0E701232846B047411CC8D1A2
:103520002B68002BC5D01D2B01D0162B01D12F608D
:10353000B1E7A38943F04003A381ADE70F69002FF2
:10354000A9D093070E6808BF4B690F6018BF00230E
:10355000A6EB07088B60B8F1000F9CDD43463A46A6
:10356000216AA66A2846B047002806DCA38943F0F2
:103570004003A3814FF0FF308EE70744A8EB00081B
:10358000E9E700BF0100402038B50B6905460C464D
:10359000DBB118B183690BB9FFF7F6FA0C4B9C420B
:1035A00009D16C68B4F90C307BB121462846BDE8DE
:1035B0003840FFF763BF074B9C4201D1AC68F1E78D
:1035C000054B9C4208BFEC68ECE7002038BD00BF0B
:1035D000C0370008E0370008A037000838B5074CAE
:1035E000054608461146002222601A46FFF72EF9CA
:1035F000431C02D1236803B12B6038BD7001002049
:1036000070B50E46B1F90E10002996B014461D464D
:1036100007DA00232B60B3891A0610D44FF48063B5
:103620000EE06A4600F062F80028F2DB019A02F42C
:103630007042A2F500535A425A412A60EEE74023F5
:103640000020236016B070BD8B8973B59D070646B8
:103650000C4607D504F1470323602361012363610E
:1036600002B070BD01AB6A46FFF7CAFF009905467C
:103670003046FFF7C7F948B9B4F90C309A05EFD4D2
:1036800023F0030343F00203A381E3E70D4BB3628E
:10369000A389206043F08003A381009B6361019BA9
:1036A00020615BB1B4F90E10304600F031F828B15A
:1036B000A38923F0030343F00103A381A3891D43DE
:1036C000A581CDE7512B000838B5074C05460846C3
:1036D0001146002222601A46FEF7ECFF431C02D17D
:1036E000236803B12B6038BD7001002038B5074C4A
:1036F00000230546084611462360FFF7A0F8431C47
:1037000002D1236803B12B6038BD00BF70010020D7
:1037100038B5064C0023054608462360FFF794F8A9
:10372000431C02D1236803B12B6038BD7001002017
:10373000F8B500BFF8BC08BC9E467047F8B500BF9E
:08374000F8BC08BC9E4670476E
:103748000000000000000000010203040607080949
:1037580000000000010203040D25730A00000000A8
:103768000D5B20002825642920000000205D000052
:103778007461736B203200007461736B2031000038
:1037880069646C65000000000D256C750000000080
:103798000A000000100000200000000000000000E7
:1037A8000000000000000000000000000000000011
:1037B8000000000000000000000000000000000001
:1037C80000000000000000000000000000000000F1
:1037D80000000000000000000000000000000000E1
:1037E80000000000000000000000000000000000D1
:1037F8000000000000000000232D302B2000686C22
:103808004C006566674546470030313233343536FB
:103818003738394142434445460030313233343534
:0C38280036373839616263646566000061
:083834003CCAFF7F0100000007
:04383C002502000859
:043840000102000879
:1038440001000000100000000024F400100000201B
:1038540000000000C0370008E0370008A037000867
:103864000000000000000000000000000000000054
:103874000000000000000000000000000000000044
:103884000000000000000000000000000000000034
:103894000000000000000000000000000000000024
:1038A4000000000000000000000000000000000014
:04000005080028A126
:00000001FF
